{
  "contractName": "LandRegistry",
  "abi": [
    {
      "anonymous": false,
      "inputs": [
        {
          "indexed": true,
          "internalType": "uint256",
          "name": "landId",
          "type": "uint256"
        },
        {
          "indexed": false,
          "internalType": "string",
          "name": "location",
          "type": "string"
        },
        {
          "indexed": false,
          "internalType": "uint256",
          "name": "area",
          "type": "uint256"
        },
        {
          "indexed": true,
          "internalType": "address",
          "name": "owner",
          "type": "address"
        }
      ],
      "name": "LandRegistered",
      "type": "event"
    },
    {
      "anonymous": false,
      "inputs": [
        {
          "indexed": true,
          "internalType": "uint256",
          "name": "landId",
          "type": "uint256"
        },
        {
          "indexed": true,
          "internalType": "address",
          "name": "oldOwner",
          "type": "address"
        },
        {
          "indexed": true,
          "internalType": "address",
          "name": "newOwner",
          "type": "address"
        }
      ],
      "name": "OwnershipTransferred",
      "type": "event"
    },
    {
      "inputs": [
        {
          "internalType": "uint256",
          "name": "",
          "type": "uint256"
        }
      ],
      "name": "lands",
      "outputs": [
        {
          "internalType": "uint256",
          "name": "id",
          "type": "uint256"
        },
        {
          "internalType": "string",
          "name": "location",
          "type": "string"
        },
        {
          "internalType": "uint256",
          "name": "area",
          "type": "uint256"
        },
        {
          "internalType": "address",
          "name": "owner",
          "type": "address"
        },
        {
          "internalType": "bool",
          "name": "registered",
          "type": "bool"
        }
      ],
      "stateMutability": "view",
      "type": "function"
    },
    {
      "inputs": [
        {
          "internalType": "uint256",
          "name": "_id",
          "type": "uint256"
        },
        {
          "internalType": "string",
          "name": "_location",
          "type": "string"
        },
        {
          "internalType": "uint256",
          "name": "_area",
          "type": "uint256"
        }
      ],
      "name": "registerLand",
      "outputs": [],
      "stateMutability": "nonpayable",
      "type": "function"
    },
    {
      "inputs": [
        {
          "internalType": "uint256",
          "name": "_id",
          "type": "uint256"
        },
        {
          "internalType": "address",
          "name": "_newOwner",
          "type": "address"
        }
      ],
      "name": "transferOwnership",
      "outputs": [],
      "stateMutability": "nonpayable",
      "type": "function"
    },
    {
      "inputs": [
        {
          "internalType": "uint256",
          "name": "_id",
          "type": "uint256"
        }
      ],
      "name": "getLand",
      "outputs": [
        {
          "internalType": "uint256",
          "name": "",
          "type": "uint256"
        },
        {
          "internalType": "string",
          "name": "",
          "type": "string"
        },
        {
          "internalType": "uint256",
          "name": "",
          "type": "uint256"
        },
        {
          "internalType": "address",
          "name": "",
          "type": "address"
        },
        {
          "internalType": "bool",
          "name": "",
          "type": "bool"
        }
      ],
      "stateMutability": "view",
      "type": "function"
    },
    {
      "inputs": [
        {
          "internalType": "uint256",
          "name": "_id",
          "type": "uint256"
        }
      ],
      "name": "isLandRegistered",
      "outputs": [
        {
          "internalType": "bool",
          "name": "",
          "type": "bool"
        }
      ],
      "stateMutability": "view",
      "type": "function"
    }
  ],
  "bytecode": "0x608060405234801561000f575f80fd5b50610f908061001d5f395ff3fe608060405234801561000f575f80fd5b5060043610610055575f3560e01c806329507f73146100595780632e8782bc1461007557806398f1c340146100a5578063e261f1e5146100c1578063f02dd53f146100f5575b5f80fd5b610073600480360381019061006e91906107d1565b610129565b005b61008f600480360381019061008a919061080f565b6102e8565b60405161009c9190610854565b60405180910390f35b6100bf60048036038101906100ba91906109a9565b610311565b005b6100db60048036038101906100d6919061080f565b6104a9565b6040516100ec959493929190610aad565b60405180910390f35b61010f600480360381019061010a919061080f565b61058c565b604051610120959493929190610aad565b60405180910390f35b5f805f8481526020019081526020015f2090508060030160149054906101000a900460ff1661018d576040517f08c379a000000000000000000000000000000000000000000000000000000000815260040161018490610b4f565b60405180910390fd5b3373ffffffffffffffffffffffffffffffffffffffff16816003015f9054906101000a900473ffffffffffffffffffffffffffffffffffffffff1673ffffffffffffffffffffffffffffffffffffffff161461021e576040517f08c379a000000000000000000000000000000000000000000000000000000000815260040161021590610bdd565b60405180910390fd5b5f816003015f9054906101000a900473ffffffffffffffffffffffffffffffffffffffff16905082826003015f6101000a81548173ffffffffffffffffffffffffffffffffffffffff021916908373ffffffffffffffffffffffffffffffffffffffff1602179055508273ffffffffffffffffffffffffffffffffffffffff168173ffffffffffffffffffffffffffffffffffffffff16857f16b85f49bf01212961345d3016c9a531894accf62eb7680f2045d79185cc0ec060405160405180910390a450505050565b5f805f8381526020019081526020015f2060030160149054906101000a900460ff169050919050565b5f808481526020019081526020015f2060030160149054906101000a900460ff1615610372576040517f08c379a000000000000000000000000000000000000000000000000000000000815260040161036990610c45565b60405180910390fd5b6040518060a001604052808481526020018381526020018281526020013373ffffffffffffffffffffffffffffffffffffffff168152602001600115158152505f808581526020019081526020015f205f820151815f015560208201518160010190816103df9190610e5d565b50604082015181600201556060820151816003015f6101000a81548173ffffffffffffffffffffffffffffffffffffffff021916908373ffffffffffffffffffffffffffffffffffffffff16021790555060808201518160030160146101000a81548160ff0219169083151502179055509050503373ffffffffffffffffffffffffffffffffffffffff16837f53a976a9b9d61df3bb2e08e33448938aea67fb03572279eb18ed48cdd6fad04e848460405161049c929190610f2c565b60405180910390a3505050565b5f602052805f5260405f205f91509050805f0154908060010180546104cd90610c90565b80601f01602080910402602001604051908101604052809291908181526020018280546104f990610c90565b80156105445780601f1061051b57610100808354040283529160200191610544565b820191905f5260205f20905b81548152906001019060200180831161052757829003601f168201915b505050505090806002015490806003015f9054906101000a900473ffffffffffffffffffffffffffffffffffffffff16908060030160149054906101000a900460ff16905085565b5f60605f805f805f808881526020019081526020015f206040518060a00160405290815f82015481526020016001820180546105c790610c90565b80601f01602080910402602001604051908101604052809291908181526020018280546105f390610c90565b801561063e5780601f106106155761010080835404028352916020019161063e565b820191905f5260205f20905b81548152906001019060200180831161062157829003601f168201915b5050505050815260200160028201548152602001600382015f9054906101000a900473ffffffffffffffffffffffffffffffffffffffff1673ffffffffffffffffffffffffffffffffffffffff1673ffffffffffffffffffffffffffffffffffffffff1681526020016003820160149054906101000a900460ff16151515158152505090508060800151610707576040517f08c379a00000000000000000000000000000000000000000000000000000000081526004016106fe90610b4f565b60405180910390fd5b805f01518160200151826040015183606001518460800151955095509550955095505091939590929450565b5f604051905090565b5f80fd5b5f80fd5b5f819050919050565b61075681610744565b8114610760575f80fd5b50565b5f813590506107718161074d565b92915050565b5f73ffffffffffffffffffffffffffffffffffffffff82169050919050565b5f6107a082610777565b9050919050565b6107b081610796565b81146107ba575f80fd5b50565b5f813590506107cb816107a7565b92915050565b5f80604083850312156107e7576107e661073c565b5b5f6107f485828601610763565b9250506020610805858286016107bd565b9150509250929050565b5f602082840312156108245761082361073c565b5b5f61083184828501610763565b91505092915050565b5f8115159050919050565b61084e8161083a565b82525050565b5f6020820190506108675f830184610845565b92915050565b5f80fd5b5f80fd5b5f601f19601f8301169050919050565b7f4e487b71000000000000000000000000000000000000000000000000000000005f52604160045260245ffd5b6108bb82610875565b810181811067ffffffffffffffff821117156108da576108d9610885565b5b80604052505050565b5f6108ec610733565b90506108f882826108b2565b919050565b5f67ffffffffffffffff82111561091757610916610885565b5b61092082610875565b9050602081019050919050565b828183375f83830152505050565b5f61094d610948846108fd565b6108e3565b90508281526020810184848401111561096957610968610871565b5b61097484828561092d565b509392505050565b5f82601f8301126109905761098f61086d565b5b81356109a084826020860161093b565b91505092915050565b5f805f606084860312156109c0576109bf61073c565b5b5f6109cd86828701610763565b935050602084013567ffffffffffffffff8111156109ee576109ed610740565b5b6109fa8682870161097c565b9250506040610a0b86828701610763565b9150509250925092565b610a1e81610744565b82525050565b5f81519050919050565b5f82825260208201905092915050565b5f5b83811015610a5b578082015181840152602081019050610a40565b5f8484015250505050565b5f610a7082610a24565b610a7a8185610a2e565b9350610a8a818560208601610a3e565b610a9381610875565b840191505092915050565b610aa781610796565b82525050565b5f60a082019050610ac05f830188610a15565b8181036020830152610ad28187610a66565b9050610ae16040830186610a15565b610aee6060830185610a9e565b610afb6080830184610845565b9695505050505050565b7f4c616e64206e6f742072656769737465726564000000000000000000000000005f82015250565b5f610b39601383610a2e565b9150610b4482610b05565b602082019050919050565b5f6020820190508181035f830152610b6681610b2d565b9050919050565b7f4f6e6c7920746865206f776e65722063616e207472616e73666572206f776e655f8201527f7273686970000000000000000000000000000000000000000000000000000000602082015250565b5f610bc7602583610a2e565b9150610bd282610b6d565b604082019050919050565b5f6020820190508181035f830152610bf481610bbb565b9050919050565b7f4c616e6420616c726561647920726567697374657265640000000000000000005f82015250565b5f610c2f601783610a2e565b9150610c3a82610bfb565b602082019050919050565b5f6020820190508181035f830152610c5c81610c23565b9050919050565b7f4e487b71000000000000000000000000000000000000000000000000000000005f52602260045260245ffd5b5f6002820490506001821680610ca757607f821691505b602082108103610cba57610cb9610c63565b5b50919050565b5f819050815f5260205f209050919050565b5f6020601f8301049050919050565b5f82821b905092915050565b5f60088302610d1c7fffffffffffffffffffffffffffffffffffffffffffffffffffffffffffffffff82610ce1565b610d268683610ce1565b95508019841693508086168417925050509392505050565b5f819050919050565b5f610d61610d5c610d5784610744565b610d3e565b610744565b9050919050565b5f819050919050565b610d7a83610d47565b610d8e610d8682610d68565b848454610ced565b825550505050565b5f90565b610da2610d96565b610dad818484610d71565b505050565b5b81811015610dd057610dc55f82610d9a565b600181019050610db3565b5050565b601f821115610e1557610de681610cc0565b610def84610cd2565b81016020851015610dfe578190505b610e12610e0a85610cd2565b830182610db2565b50505b505050565b5f82821c905092915050565b5f610e355f1984600802610e1a565b1980831691505092915050565b5f610e4d8383610e26565b9150826002028217905092915050565b610e6682610a24565b67ffffffffffffffff811115610e7f57610e7e610885565b5b610e898254610c90565b610e94828285610dd4565b5f60209050601f831160018114610ec5575f8415610eb3578287015190505b610ebd8582610e42565b865550610f24565b601f198416610ed386610cc0565b5f5b82811015610efa57848901518255600182019150602085019450602081019050610ed5565b86831015610f175784890151610f13601f891682610e26565b8355505b6001600288020188555050505b505050505050565b5f6040820190508181035f830152610f448185610a66565b9050610f536020830184610a15565b939250505056fea2646970667358221220bd96314246808235a9b0fdae6595b435998884ea69d99409d43c0df092d85aa064736f6c63430008140033",
  "immutableReferences": {},
  "source": "// SPDX-License-Identifier: MIT\r\npragma solidity ^0.8.0;\r\n\r\ncontract LandRegistry {\r\n    // Structure to represent a land parcel\r\n    struct Land {\r\n        uint256 id;\r\n        string location;\r\n        uint256 area;\r\n        address owner;\r\n        bool registered;\r\n    }\r\n\r\n    // Mapping from land ID to Land details\r\n    mapping(uint256 => Land) public lands;\r\n\r\n    // Events\r\n    event LandRegistered(uint256 indexed landId, string location, uint256 area, address indexed owner);\r\n    event OwnershipTransferred(uint256 indexed landId, address indexed oldOwner, address indexed newOwner);\r\n\r\n    // Register a new land parcel\r\n    function registerLand(uint256 _id, string memory _location, uint256 _area) public {\r\n        require(!lands[_id].registered, \"Land already registered\");\r\n\r\n        lands[_id] = Land({\r\n            id: _id,\r\n            location: _location,\r\n            area: _area,\r\n            owner: msg.sender,\r\n            registered: true\r\n        });\r\n\r\n        emit LandRegistered(_id, _location, _area, msg.sender);\r\n    }\r\n\r\n    // Transfer ownership of a land parcel\r\n    function transferOwnership(uint256 _id, address _newOwner) public {\r\n        Land storage land = lands[_id];\r\n        require(land.registered, \"Land not registered\");\r\n        require(land.owner == msg.sender, \"Only the owner can transfer ownership\");\r\n\r\n        address oldOwner = land.owner;\r\n        land.owner = _newOwner;\r\n\r\n        emit OwnershipTransferred(_id, oldOwner, _newOwner);\r\n    }\r\n\r\n    // Get land details\r\n    function getLand(uint256 _id) public view returns (uint256, string memory, uint256, address, bool) {\r\n        Land memory land = lands[_id];\r\n        require(land.registered, \"Land not registered\");\r\n\r\n        return (land.id, land.location, land.area, land.owner, land.registered);\r\n    }\r\n\r\n    // Check if land is registered\r\n    function isLandRegistered(uint256 _id) public view returns (bool) {\r\n        return lands[_id].registered;\r\n    }\r\n}\r\n",
  "sourcePath": "C:\\Users\\Asus\\OneDrive\\Desktop\\land-registry-blockchain\\contracts\\LandRegistry.sol",
  "compiler": {
    "name": "solc",
    "version": "0.8.20+commit.a1b79de6.Emscripten.clang"
  },
  "schemaVersion": "3.4.16",
  "updatedAt": "2025-02-09T17:46:18.802Z",
  "devdoc": {
    "kind": "dev",
    "methods": {},
    "version": 1
  },
  "userdoc": {
    "kind": "user",
    "methods": {},
    "version": 1
  }
}